{
  "_format": "hh-sol-artifact-1",
  "contractName": "MetaFlokiPrediction",
  "sourceName": "contracts/HarmonyPrediction.sol",
  "abi": [
    {
      "inputs": [
        {
          "internalType": "address",
          "name": "_oracleAddress",
          "type": "address"
        },
        {
          "internalType": "address",
          "name": "_adminAddress",
          "type": "address"
        },
        {
          "internalType": "address",
          "name": "_operatorAddress",
          "type": "address"
        },
        {
          "internalType": "uint256",
          "name": "_intervalSeconds",
          "type": "uint256"
        },
        {
          "internalType": "uint256",
          "name": "_bufferSeconds",
          "type": "uint256"
        },
        {
          "internalType": "uint256",
          "name": "_minBetAmount",
          "type": "uint256"
        },
        {
          "internalType": "uint256",
          "name": "_oracleUpdateAllowance",
          "type": "uint256"
        },
        {
          "internalType": "uint256",
          "name": "_treasuryFee",
          "type": "uint256"
        }
      ],
      "stateMutability": "nonpayable",
      "type": "constructor"
    },
    {
      "anonymous": false,
      "inputs": [
        {
          "indexed": true,
          "internalType": "address",
          "name": "sender",
          "type": "address"
        },
        {
          "indexed": true,
          "internalType": "uint256",
          "name": "epoch",
          "type": "uint256"
        },
        {
          "indexed": false,
          "internalType": "uint256",
          "name": "amount",
          "type": "uint256"
        }
      ],
      "name": "BetBear",
      "type": "event"
    },
    {
      "anonymous": false,
      "inputs": [
        {
          "indexed": true,
          "internalType": "address",
          "name": "sender",
          "type": "address"
        },
        {
          "indexed": true,
          "internalType": "uint256",
          "name": "epoch",
          "type": "uint256"
        },
        {
          "indexed": false,
          "internalType": "uint256",
          "name": "amount",
          "type": "uint256"
        }
      ],
      "name": "BetBull",
      "type": "event"
    },
    {
      "anonymous": false,
      "inputs": [
        {
          "indexed": true,
          "internalType": "address",
          "name": "sender",
          "type": "address"
        },
        {
          "indexed": true,
          "internalType": "uint256",
          "name": "epoch",
          "type": "uint256"
        },
        {
          "indexed": false,
          "internalType": "uint256",
          "name": "amount",
          "type": "uint256"
        }
      ],
      "name": "Claim",
      "type": "event"
    },
    {
      "anonymous": false,
      "inputs": [
        {
          "indexed": true,
          "internalType": "uint256",
          "name": "epoch",
          "type": "uint256"
        },
        {
          "indexed": true,
          "internalType": "uint256",
          "name": "roundId",
          "type": "uint256"
        },
        {
          "indexed": false,
          "internalType": "int256",
          "name": "price",
          "type": "int256"
        }
      ],
      "name": "EndRound",
      "type": "event"
    },
    {
      "anonymous": false,
      "inputs": [
        {
          "indexed": true,
          "internalType": "uint256",
          "name": "epoch",
          "type": "uint256"
        },
        {
          "indexed": true,
          "internalType": "uint256",
          "name": "roundId",
          "type": "uint256"
        },
        {
          "indexed": false,
          "internalType": "int256",
          "name": "price",
          "type": "int256"
        }
      ],
      "name": "LockRound",
      "type": "event"
    },
    {
      "anonymous": false,
      "inputs": [
        {
          "indexed": false,
          "internalType": "address",
          "name": "admin",
          "type": "address"
        }
      ],
      "name": "NewAdminAddress",
      "type": "event"
    },
    {
      "anonymous": false,
      "inputs": [
        {
          "indexed": false,
          "internalType": "uint256",
          "name": "bufferSeconds",
          "type": "uint256"
        },
        {
          "indexed": false,
          "internalType": "uint256",
          "name": "intervalSeconds",
          "type": "uint256"
        }
      ],
      "name": "NewBufferAndIntervalSeconds",
      "type": "event"
    },
    {
      "anonymous": false,
      "inputs": [
        {
          "indexed": true,
          "internalType": "uint256",
          "name": "epoch",
          "type": "uint256"
        },
        {
          "indexed": false,
          "internalType": "uint256",
          "name": "minBetAmount",
          "type": "uint256"
        }
      ],
      "name": "NewMinBetAmount",
      "type": "event"
    },
    {
      "anonymous": false,
      "inputs": [
        {
          "indexed": false,
          "internalType": "address",
          "name": "operator",
          "type": "address"
        }
      ],
      "name": "NewOperatorAddress",
      "type": "event"
    },
    {
      "anonymous": false,
      "inputs": [
        {
          "indexed": false,
          "internalType": "address",
          "name": "oracle",
          "type": "address"
        }
      ],
      "name": "NewOracle",
      "type": "event"
    },
    {
      "anonymous": false,
      "inputs": [
        {
          "indexed": false,
          "internalType": "uint256",
          "name": "oracleUpdateAllowance",
          "type": "uint256"
        }
      ],
      "name": "NewOracleUpdateAllowance",
      "type": "event"
    },
    {
      "anonymous": false,
      "inputs": [
        {
          "indexed": true,
          "internalType": "uint256",
          "name": "epoch",
          "type": "uint256"
        },
        {
          "indexed": false,
          "internalType": "uint256",
          "name": "treasuryFee",
          "type": "uint256"
        }
      ],
      "name": "NewTreasuryFee",
      "type": "event"
    },
    {
      "anonymous": false,
      "inputs": [
        {
          "indexed": true,
          "internalType": "address",
          "name": "previousOwner",
          "type": "address"
        },
        {
          "indexed": true,
          "internalType": "address",
          "name": "newOwner",
          "type": "address"
        }
      ],
      "name": "OwnershipTransferred",
      "type": "event"
    },
    {
      "anonymous": false,
      "inputs": [
        {
          "indexed": true,
          "internalType": "uint256",
          "name": "epoch",
          "type": "uint256"
        }
      ],
      "name": "Pause",
      "type": "event"
    },
    {
      "anonymous": false,
      "inputs": [
        {
          "indexed": false,
          "internalType": "address",
          "name": "account",
          "type": "address"
        }
      ],
      "name": "Paused",
      "type": "event"
    },
    {
      "anonymous": false,
      "inputs": [
        {
          "indexed": true,
          "internalType": "uint256",
          "name": "epoch",
          "type": "uint256"
        },
        {
          "indexed": false,
          "internalType": "uint256",
          "name": "rewardBaseCalAmount",
          "type": "uint256"
        },
        {
          "indexed": false,
          "internalType": "uint256",
          "name": "rewardAmount",
          "type": "uint256"
        },
        {
          "indexed": false,
          "internalType": "uint256",
          "name": "treasuryAmount",
          "type": "uint256"
        }
      ],
      "name": "RewardsCalculated",
      "type": "event"
    },
    {
      "anonymous": false,
      "inputs": [
        {
          "indexed": true,
          "internalType": "uint256",
          "name": "epoch",
          "type": "uint256"
        }
      ],
      "name": "StartRound",
      "type": "event"
    },
    {
      "anonymous": false,
      "inputs": [
        {
          "indexed": true,
          "internalType": "address",
          "name": "token",
          "type": "address"
        },
        {
          "indexed": false,
          "internalType": "uint256",
          "name": "amount",
          "type": "uint256"
        }
      ],
      "name": "TokenRecovery",
      "type": "event"
    },
    {
      "anonymous": false,
      "inputs": [
        {
          "indexed": false,
          "internalType": "uint256",
          "name": "amount",
          "type": "uint256"
        }
      ],
      "name": "TreasuryClaim",
      "type": "event"
    },
    {
      "anonymous": false,
      "inputs": [
        {
          "indexed": true,
          "internalType": "uint256",
          "name": "epoch",
          "type": "uint256"
        }
      ],
      "name": "Unpause",
      "type": "event"
    },
    {
      "anonymous": false,
      "inputs": [
        {
          "indexed": false,
          "internalType": "address",
          "name": "account",
          "type": "address"
        }
      ],
      "name": "Unpaused",
      "type": "event"
    },
    {
      "inputs": [],
      "name": "MAX_TREASURY_FEE",
      "outputs": [
        {
          "internalType": "uint256",
          "name": "",
          "type": "uint256"
        }
      ],
      "stateMutability": "view",
      "type": "function"
    },
    {
      "inputs": [],
      "name": "adminAddress",
      "outputs": [
        {
          "internalType": "address",
          "name": "",
          "type": "address"
        }
      ],
      "stateMutability": "view",
      "type": "function"
    },
    {
      "inputs": [
        {
          "internalType": "uint256",
          "name": "epoch",
          "type": "uint256"
        }
      ],
      "name": "betBear",
      "outputs": [],
      "stateMutability": "payable",
      "type": "function"
    },
    {
      "inputs": [
        {
          "internalType": "uint256",
          "name": "epoch",
          "type": "uint256"
        }
      ],
      "name": "betBull",
      "outputs": [],
      "stateMutability": "payable",
      "type": "function"
    },
    {
      "inputs": [],
      "name": "bufferSeconds",
      "outputs": [
        {
          "internalType": "uint256",
          "name": "",
          "type": "uint256"
        }
      ],
      "stateMutability": "view",
      "type": "function"
    },
    {
      "inputs": [
        {
          "internalType": "uint256[]",
          "name": "epochs",
          "type": "uint256[]"
        }
      ],
      "name": "claim",
      "outputs": [],
      "stateMutability": "nonpayable",
      "type": "function"
    },
    {
      "inputs": [],
      "name": "claimTreasury",
      "outputs": [],
      "stateMutability": "nonpayable",
      "type": "function"
    },
    {
      "inputs": [
        {
          "internalType": "uint256",
          "name": "epoch",
          "type": "uint256"
        },
        {
          "internalType": "address",
          "name": "user",
          "type": "address"
        }
      ],
      "name": "claimable",
      "outputs": [
        {
          "internalType": "bool",
          "name": "",
          "type": "bool"
        }
      ],
      "stateMutability": "view",
      "type": "function"
    },
    {
      "inputs": [],
      "name": "currentEpoch",
      "outputs": [
        {
          "internalType": "uint256",
          "name": "",
          "type": "uint256"
        }
      ],
      "stateMutability": "view",
      "type": "function"
    },
    {
      "inputs": [],
      "name": "executeRound",
      "outputs": [],
      "stateMutability": "nonpayable",
      "type": "function"
    },
    {
      "inputs": [],
      "name": "genesisLockOnce",
      "outputs": [
        {
          "internalType": "bool",
          "name": "",
          "type": "bool"
        }
      ],
      "stateMutability": "view",
      "type": "function"
    },
    {
      "inputs": [],
      "name": "genesisLockRound",
      "outputs": [],
      "stateMutability": "nonpayable",
      "type": "function"
    },
    {
      "inputs": [],
      "name": "genesisStartOnce",
      "outputs": [
        {
          "internalType": "bool",
          "name": "",
          "type": "bool"
        }
      ],
      "stateMutability": "view",
      "type": "function"
    },
    {
      "inputs": [],
      "name": "genesisStartRound",
      "outputs": [],
      "stateMutability": "nonpayable",
      "type": "function"
    },
    {
      "inputs": [],
      "name": "getBlockTimestamp",
      "outputs": [
        {
          "internalType": "uint256",
          "name": "",
          "type": "uint256"
        }
      ],
      "stateMutability": "view",
      "type": "function"
    },
    {
      "inputs": [],
      "name": "getLatestOracleRounds",
      "outputs": [
        {
          "internalType": "uint80",
          "name": "",
          "type": "uint80"
        },
        {
          "internalType": "uint256",
          "name": "",
          "type": "uint256"
        }
      ],
      "stateMutability": "view",
      "type": "function"
    },
    {
      "inputs": [
        {
          "internalType": "address",
          "name": "user",
          "type": "address"
        },
        {
          "internalType": "uint256",
          "name": "cursor",
          "type": "uint256"
        },
        {
          "internalType": "uint256",
          "name": "size",
          "type": "uint256"
        }
      ],
      "name": "getUserRounds",
      "outputs": [
        {
          "internalType": "uint256[]",
          "name": "",
          "type": "uint256[]"
        },
        {
          "components": [
            {
              "internalType": "enum MetaFlokiPrediction.Position",
              "name": "position",
              "type": "uint8"
            },
            {
              "internalType": "uint256",
              "name": "amount",
              "type": "uint256"
            },
            {
              "internalType": "bool",
              "name": "claimed",
              "type": "bool"
            }
          ],
          "internalType": "struct MetaFlokiPrediction.BetInfo[]",
          "name": "",
          "type": "tuple[]"
        },
        {
          "internalType": "uint256",
          "name": "",
          "type": "uint256"
        }
      ],
      "stateMutability": "view",
      "type": "function"
    },
    {
      "inputs": [
        {
          "internalType": "address",
          "name": "user",
          "type": "address"
        }
      ],
      "name": "getUserRoundsLength",
      "outputs": [
        {
          "internalType": "uint256",
          "name": "",
          "type": "uint256"
        }
      ],
      "stateMutability": "view",
      "type": "function"
    },
    {
      "inputs": [],
      "name": "intervalSeconds",
      "outputs": [
        {
          "internalType": "uint256",
          "name": "",
          "type": "uint256"
        }
      ],
      "stateMutability": "view",
      "type": "function"
    },
    {
      "inputs": [
        {
          "internalType": "uint256",
          "name": "",
          "type": "uint256"
        },
        {
          "internalType": "address",
          "name": "",
          "type": "address"
        }
      ],
      "name": "ledger",
      "outputs": [
        {
          "internalType": "enum MetaFlokiPrediction.Position",
          "name": "position",
          "type": "uint8"
        },
        {
          "internalType": "uint256",
          "name": "amount",
          "type": "uint256"
        },
        {
          "internalType": "bool",
          "name": "claimed",
          "type": "bool"
        }
      ],
      "stateMutability": "view",
      "type": "function"
    },
    {
      "inputs": [],
      "name": "minBetAmount",
      "outputs": [
        {
          "internalType": "uint256",
          "name": "",
          "type": "uint256"
        }
      ],
      "stateMutability": "view",
      "type": "function"
    },
    {
      "inputs": [],
      "name": "operatorAddress",
      "outputs": [
        {
          "internalType": "address",
          "name": "",
          "type": "address"
        }
      ],
      "stateMutability": "view",
      "type": "function"
    },
    {
      "inputs": [],
      "name": "oracle",
      "outputs": [
        {
          "internalType": "contract AggregatorV3Interface",
          "name": "",
          "type": "address"
        }
      ],
      "stateMutability": "view",
      "type": "function"
    },
    {
      "inputs": [],
      "name": "oracleLatestRoundId",
      "outputs": [
        {
          "internalType": "uint256",
          "name": "",
          "type": "uint256"
        }
      ],
      "stateMutability": "view",
      "type": "function"
    },
    {
      "inputs": [],
      "name": "oracleUpdateAllowance",
      "outputs": [
        {
          "internalType": "uint256",
          "name": "",
          "type": "uint256"
        }
      ],
      "stateMutability": "view",
      "type": "function"
    },
    {
      "inputs": [],
      "name": "owner",
      "outputs": [
        {
          "internalType": "address",
          "name": "",
          "type": "address"
        }
      ],
      "stateMutability": "view",
      "type": "function"
    },
    {
      "inputs": [],
      "name": "pause",
      "outputs": [],
      "stateMutability": "nonpayable",
      "type": "function"
    },
    {
      "inputs": [],
      "name": "paused",
      "outputs": [
        {
          "internalType": "bool",
          "name": "",
          "type": "bool"
        }
      ],
      "stateMutability": "view",
      "type": "function"
    },
    {
      "inputs": [
        {
          "internalType": "address",
          "name": "_token",
          "type": "address"
        },
        {
          "internalType": "uint256",
          "name": "_amount",
          "type": "uint256"
        }
      ],
      "name": "recoverToken",
      "outputs": [],
      "stateMutability": "nonpayable",
      "type": "function"
    },
    {
      "inputs": [
        {
          "internalType": "uint256",
          "name": "epoch",
          "type": "uint256"
        },
        {
          "internalType": "address",
          "name": "user",
          "type": "address"
        }
      ],
      "name": "refundable",
      "outputs": [
        {
          "internalType": "bool",
          "name": "",
          "type": "bool"
        }
      ],
      "stateMutability": "view",
      "type": "function"
    },
    {
      "inputs": [],
      "name": "renounceOwnership",
      "outputs": [],
      "stateMutability": "nonpayable",
      "type": "function"
    },
    {
      "inputs": [
        {
          "internalType": "uint256",
          "name": "",
          "type": "uint256"
        }
      ],
      "name": "rounds",
      "outputs": [
        {
          "internalType": "uint256",
          "name": "epoch",
          "type": "uint256"
        },
        {
          "internalType": "uint256",
          "name": "startTimestamp",
          "type": "uint256"
        },
        {
          "internalType": "uint256",
          "name": "lockTimestamp",
          "type": "uint256"
        },
        {
          "internalType": "uint256",
          "name": "closeTimestamp",
          "type": "uint256"
        },
        {
          "internalType": "int256",
          "name": "lockPrice",
          "type": "int256"
        },
        {
          "internalType": "int256",
          "name": "closePrice",
          "type": "int256"
        },
        {
          "internalType": "uint256",
          "name": "lockOracleId",
          "type": "uint256"
        },
        {
          "internalType": "uint256",
          "name": "closeOracleId",
          "type": "uint256"
        },
        {
          "internalType": "uint256",
          "name": "totalAmount",
          "type": "uint256"
        },
        {
          "internalType": "uint256",
          "name": "bullAmount",
          "type": "uint256"
        },
        {
          "internalType": "uint256",
          "name": "bearAmount",
          "type": "uint256"
        },
        {
          "internalType": "uint256",
          "name": "rewardBaseCalAmount",
          "type": "uint256"
        },
        {
          "internalType": "uint256",
          "name": "rewardAmount",
          "type": "uint256"
        },
        {
          "internalType": "bool",
          "name": "oracleCalled",
          "type": "bool"
        }
      ],
      "stateMutability": "view",
      "type": "function"
    },
    {
      "inputs": [
        {
          "internalType": "address",
          "name": "_adminAddress",
          "type": "address"
        }
      ],
      "name": "setAdmin",
      "outputs": [],
      "stateMutability": "nonpayable",
      "type": "function"
    },
    {
      "inputs": [
        {
          "internalType": "uint256",
          "name": "_bufferSeconds",
          "type": "uint256"
        },
        {
          "internalType": "uint256",
          "name": "_intervalSeconds",
          "type": "uint256"
        }
      ],
      "name": "setBufferAndIntervalSeconds",
      "outputs": [],
      "stateMutability": "nonpayable",
      "type": "function"
    },
    {
      "inputs": [
        {
          "internalType": "uint256",
          "name": "_minBetAmount",
          "type": "uint256"
        }
      ],
      "name": "setMinBetAmount",
      "outputs": [],
      "stateMutability": "nonpayable",
      "type": "function"
    },
    {
      "inputs": [
        {
          "internalType": "address",
          "name": "_operatorAddress",
          "type": "address"
        }
      ],
      "name": "setOperator",
      "outputs": [],
      "stateMutability": "nonpayable",
      "type": "function"
    },
    {
      "inputs": [
        {
          "internalType": "address",
          "name": "_oracle",
          "type": "address"
        }
      ],
      "name": "setOracle",
      "outputs": [],
      "stateMutability": "nonpayable",
      "type": "function"
    },
    {
      "inputs": [
        {
          "internalType": "uint256",
          "name": "_oracleUpdateAllowance",
          "type": "uint256"
        }
      ],
      "name": "setOracleUpdateAllowance",
      "outputs": [],
      "stateMutability": "nonpayable",
      "type": "function"
    },
    {
      "inputs": [
        {
          "internalType": "uint256",
          "name": "_treasuryFee",
          "type": "uint256"
        }
      ],
      "name": "setTreasuryFee",
      "outputs": [],
      "stateMutability": "nonpayable",
      "type": "function"
    },
    {
      "inputs": [
        {
          "internalType": "address",
          "name": "newOwner",
          "type": "address"
        }
      ],
      "name": "transferOwnership",
      "outputs": [],
      "stateMutability": "nonpayable",
      "type": "function"
    },
    {
      "inputs": [],
      "name": "treasuryAmount",
      "outputs": [
        {
          "internalType": "uint256",
          "name": "",
          "type": "uint256"
        }
      ],
      "stateMutability": "view",
      "type": "function"
    },
    {
      "inputs": [],
      "name": "treasuryFee",
      "outputs": [
        {
          "internalType": "uint256",
          "name": "",
          "type": "uint256"
        }
      ],
      "stateMutability": "view",
      "type": "function"
    },
    {
      "inputs": [],
      "name": "unpause",
      "outputs": [],
      "stateMutability": "nonpayable",
      "type": "function"
    },
    {
      "inputs": [
        {
          "internalType": "address",
          "name": "",
          "type": "address"
        },
        {
          "internalType": "uint256",
          "name": "",
          "type": "uint256"
        }
      ],
      "name": "userRounds",
      "outputs": [
        {
          "internalType": "uint256",
          "name": "",
          "type": "uint256"
        }
      ],
      "stateMutability": "view",
      "type": "function"
    }
  ],
  "bytecode": "0x60806040526002805461ffff60a01b191690553480156200001f57600080fd5b5060405162003e5f38038062003e5f833981016040819052620000429162000162565b6200005662000050620000f1565b620000f5565b6000805460ff60a01b19169055600180556103e8811115620000955760405162461bcd60e51b81526004016200008c90620001dc565b60405180910390fd5b600280546001600160a01b03199081166001600160a01b039a8b1617909155600380548216988a1698909817909755600480549097169590971694909417909455600691909155600555600791909155600c5560085562000213565b3390565b600080546001600160a01b038381166001600160a01b0319831681178455604051919092169283917f8be0079c531659141344cd1fd0a4f28419497f9722a3daafe3b4186f6b6457e09190a35050565b80516001600160a01b03811681146200015d57600080fd5b919050565b600080600080600080600080610100898b0312156200017f578384fd5b6200018a8962000145565b97506200019a60208a0162000145565b9650620001aa60408a0162000145565b9550606089015194506080890151935060a0890151925060c0890151915060e089015190509295985092959890939650565b60208082526015908201527f54726561737572792066656520746f6f20686967680000000000000000000000604082015260600190565b613c3c80620002236000396000f3fe6080604052600436106102665760003560e01c80637d1cd04f11610144578063cc32d176116100b6578063ec3247031161007a578063ec324703146106ad578063f2b3c809146106c2578063f2fde38b146106d7578063f7fdec28146106f7578063fa968eea1461070c578063fc6f94681461072157610266565b8063cc32d1761461062e578063cf2f503914610643578063d9d55eac14610663578063dd1f759614610678578063eaba23611461069857610266565b80638da5cb5b116101085780638da5cb5b14610577578063951fd6001461058c578063a0c7f71c146105bb578063aa6b873a146105db578063b29a8140146105ee578063b3ab15fb1461060e57610266565b80637d1cd04f146104de5780637dc0d1d0146104f35780638456cb5914610508578063890dc7661461051d5780638c65c81f1461053d57610266565b80636ba4c138116101dd57806376671808116101a1578063766718081461043f57806377e741c714610454578063796b89b9146104745780637adbf973146104895780637b3205f5146104a95780637bf41254146104be57610266565b80636ba4c1381461039b5780636c188593146103bb578063704b6c02146103db578063715018a6146103fb5780637285c58b1461041057610266565b8063368acb091161022f578063368acb091461031f5780633f4ba83a14610334578063452fd75a1461034957806357fb096f1461035e5780635c975abb14610371578063605540111461038657610266565b80623bdc741461026b5780630f74174f14610282578063127effb2146102ad578063273867d4146102cf57806329b72441146102fc575b600080fd5b34801561027757600080fd5b50610280610736565b005b34801561028e57600080fd5b506102976107ee565b6040516102a49190613047565b60405180910390f35b3480156102b957600080fd5b506102c26107fe565b6040516102a49190612f78565b3480156102db57600080fd5b506102ef6102ea366004612d80565b61080d565b6040516102a49190613076565b34801561030857600080fd5b5061031161082c565b6040516102a4929190613b1e565b34801561032b57600080fd5b506102ef6108c9565b34801561034057600080fd5b506102806108cf565b34801561035557600080fd5b50610280610961565b61028061036c366004612e84565b610a0b565b34801561037d57600080fd5b50610297610c02565b34801561039257600080fd5b506102ef610c12565b3480156103a757600080fd5b506102806103b6366004612df5565b610c18565b3480156103c757600080fd5b506102806103d6366004612e84565b6110fc565b3480156103e757600080fd5b506102806103f6366004612d80565b6111aa565b34801561040757600080fd5b50610280611265565b34801561041c57600080fd5b5061043061042b366004612e9c565b6112b0565b6040516102a493929190613052565b34801561044b57600080fd5b506102ef6112e1565b34801561046057600080fd5b5061028061046f366004612e84565b6112e7565b34801561048057600080fd5b506102ef61138f565b34801561049557600080fd5b506102806104a4366004612d80565b611393565b3480156104b557600080fd5b506102806114d4565b3480156104ca57600080fd5b506102976104d9366004612e9c565b6115ef565b3480156104ea57600080fd5b506102ef61177b565b3480156104ff57600080fd5b506102c2611781565b34801561051457600080fd5b50610280611790565b34801561052957600080fd5b50610280610538366004612ec7565b61182a565b34801561054957600080fd5b5061055d610558366004612e84565b6118df565b6040516102a49e9d9c9b9a99989796959493929190613ab9565b34801561058357600080fd5b506102c261194f565b34801561059857600080fd5b506105ac6105a7366004612dc3565b61195e565b6040516102a493929190612fa5565b3480156105c757600080fd5b506102976105d6366004612e9c565b611c13565b6102806105e9366004612e84565b611e13565b3480156105fa57600080fd5b50610280610609366004612d9a565b611ffb565b34801561061a57600080fd5b50610280610629366004612d80565b612093565b34801561063a57600080fd5b506102ef61212e565b34801561064f57600080fd5b5061028061065e366004612e84565b612134565b34801561066f57600080fd5b506102806121b7565b34801561068457600080fd5b506102ef610693366004612d9a565b6122c1565b3480156106a457600080fd5b506102ef6122f2565b3480156106b957600080fd5b506102ef6122f8565b3480156106ce57600080fd5b506102ef6122fe565b3480156106e357600080fd5b506102806106f2366004612d80565b612304565b34801561070357600080fd5b50610297612375565b34801561071857600080fd5b506102ef612385565b34801561072d57600080fd5b506102c261238b565b600260015414156107625760405162461bcd60e51b815260040161075990613998565b60405180910390fd5b60026001556003546001600160a01b031633146107915760405162461bcd60e51b815260040161075990613a72565b6009805460009091556003546107b0906001600160a01b03168261239a565b7fb9197c6b8e21274bd1e2d9c956a88af5cfee510f630fab3f046300f88b422361816040516107df9190613076565b60405180910390a15060018055565b600254600160a01b900460ff1681565b6004546001600160a01b031681565b6001600160a01b0381166000908152600f60205260409020545b919050565b6000806000600260009054906101000a90046001600160a01b03166001600160a01b031663feaf968c6040518163ffffffff1660e01b815260040160a06040518083038186803b15801561087f57600080fd5b505afa158015610893573d6000803e3d6000fd5b505050506040513d601f19601f820116820180604052508101906108b79190612ee8565b5050600b549295509193505050509091565b60095481565b6108d7610c02565b6108f35760405162461bcd60e51b8152600401610759906130b2565b6003546001600160a01b0316331461091d5760405162461bcd60e51b815260040161075990613a72565b6002805461ffff60a01b1916905561093361241b565b600a546040517faaa520fdd7d2c83061d632fa017b0432407e798818af63ea908589fceda39ab790600090a2565b610969610c02565b156109865760405162461bcd60e51b815260040161075990613655565b6004546001600160a01b031633146109b05760405162461bcd60e51b815260040161075990613a4c565b600254600160a81b900460ff16156109da5760405162461bcd60e51b8152600401610759906137d3565b600a546109e8906001613b37565b600a8190556109f69061248c565b6002805460ff60a81b1916600160a81b179055565b610a13610c02565b15610a305760405162461bcd60e51b815260040161075990613655565b60026001541415610a535760405162461bcd60e51b815260040161075990613998565b6002600155610a613361250a565b15610a7e5760405162461bcd60e51b81526004016107599061331a565b333214610a9d5760405162461bcd60e51b8152600401610759906136af565b600a548114610abe5760405162461bcd60e51b8152600401610759906139cf565b610ac781612510565b610ae35760405162461bcd60e51b81526004016107599061375e565b600754341015610b055760405162461bcd60e51b815260040161075990613594565b6000818152600d6020908152604080832033845290915290206001015415610b3f5760405162461bcd60e51b815260040161075990613917565b6000818152600e602052604090206008810154349190610b60908390613b37565b60088201556009810154610b75908390613b37565b60098201556000838152600d6020908152604080832033808552908352818420805460ff191681556001808201889055600f855283862080549182018155865293909420909201869055518591907f438122d8cff518d18388099a5181f0d17a12b4f1b55faedf6e4a6acee0060c1290610bf0908790613076565b60405180910390a35050600180555050565b600054600160a01b900460ff1690565b600c5481565b60026001541415610c3b5760405162461bcd60e51b815260040161075990613998565b6002600155610c493361250a565b15610c665760405162461bcd60e51b81526004016107599061331a565b333214610c855760405162461bcd60e51b8152600401610759906136af565b6000805b828110156110e257600e6000858584818110610cb557634e487b7160e01b600052603260045260246000fd5b9050602002013581526020019081526020016000206001015460001415610cee5760405162461bcd60e51b8152600401610759906138e8565b600e6000858584818110610d1257634e487b7160e01b600052603260045260246000fd5b905060200201358152602001908152602001600020600301544211610d495760405162461bcd60e51b8152600401610759906135e0565b6000600e6000868685818110610d6f57634e487b7160e01b600052603260045260246000fd5b60209081029290920135835250810191909152604001600020600d015460ff1615610f4e57610dc4858584818110610db757634e487b7160e01b600052603260045260246000fd5b9050602002013533611c13565b610de05760405162461bcd60e51b815260040161075990613399565b6000600e6000878786818110610e0657634e487b7160e01b600052603260045260246000fd5b905060200201358152602001908152602001600020604051806101c001604052908160008201548152602001600182015481526020016002820154815260200160038201548152602001600482015481526020016005820154815260200160068201548152602001600782015481526020016008820154815260200160098201548152602001600a8201548152602001600b8201548152602001600c8201548152602001600d820160009054906101000a900460ff1615151515815250509050806101600151816101800151600d6000898988818110610ef657634e487b7160e01b600052603260045260246000fd5b9050602002013581526020019081526020016000206000336001600160a01b03166001600160a01b0316815260200190815260200160002060010154610f3c9190613b6f565b610f469190613b4f565b915050610ffd565b610f7e858584818110610f7157634e487b7160e01b600052603260045260246000fd5b90506020020135336115ef565b610f9a5760405162461bcd60e51b8152600401610759906130e0565b600d6000868685818110610fbe57634e487b7160e01b600052603260045260246000fd5b9050602002013581526020019081526020016000206000336001600160a01b03166001600160a01b031681526020019081526020016000206001015490505b6001600d600087878681811061102357634e487b7160e01b600052603260045260246000fd5b6020908102929092013583525081810192909252604090810160009081203382529092529020600201805460ff19169115159190911790556110658184613b37565b925084848381811061108757634e487b7160e01b600052603260045260246000fd5b90506020020135336001600160a01b03167f34fcbac0073d7c3d388e51312faf357774904998eeb8fca628b9e6f65ee1cbf7836040516110c79190613076565b60405180910390a350806110da81613bd5565b915050610c89565b5080156110f3576110f3338261239a565b50506001805550565b611104610c02565b6111205760405162461bcd60e51b8152600401610759906130b2565b6003546001600160a01b0316331461114a5760405162461bcd60e51b815260040161075990613a72565b806111675760405162461bcd60e51b815260040161075990613816565b6007819055600a546040517f90eb87c560a0213754ceb3a7fa3012f01acab0a35602c1e1995adf69dabc9d509061119f908490613076565b60405180910390a250565b6111b261257b565b6001600160a01b03166111c361194f565b6001600160a01b0316146111e95760405162461bcd60e51b815260040161075990613729565b6001600160a01b03811661120f5760405162461bcd60e51b81526004016107599061367f565b600380546001600160a01b0319166001600160a01b0383161790556040517f137b621413925496477d46e5055ac0d56178bdd724ba8bf843afceef18268ba39061125a908390612f78565b60405180910390a150565b61126d61257b565b6001600160a01b031661127e61194f565b6001600160a01b0316146112a45760405162461bcd60e51b815260040161075990613729565b6112ae600061257f565b565b600d60209081526000928352604080842090915290825290208054600182015460029092015460ff91821692911683565b600a5481565b6112ef610c02565b61130b5760405162461bcd60e51b8152600401610759906130b2565b6003546001600160a01b031633146113355760405162461bcd60e51b815260040161075990613a72565b6103e88111156113575760405162461bcd60e51b815260040161075990613117565b6008819055600a546040517fb1c4ee38d35556741133da7ff9b6f7ab0fa88d0406133126ff128f635490a8579061119f908490613076565b4290565b61139b610c02565b6113b75760405162461bcd60e51b8152600401610759906130b2565b6003546001600160a01b031633146113e15760405162461bcd60e51b815260040161075990613a72565b6001600160a01b0381166114075760405162461bcd60e51b81526004016107599061367f565b6000600b55600280546001600160a01b0319166001600160a01b03838116919091179182905560408051633fabe5a360e21b81529051929091169163feaf968c9160048082019260a092909190829003018186803b15801561146857600080fd5b505afa15801561147c573d6000803e3d6000fd5b505050506040513d601f19601f820116820180604052508101906114a09190612ee8565b50505050507fb3eacd0e351fafdfefdec84e1cd19679b38dbcd63ea7c2c24da17fd2bc3b3c0e8160405161125a9190612f78565b6114dc610c02565b156114f95760405162461bcd60e51b815260040161075990613655565b6004546001600160a01b031633146115235760405162461bcd60e51b815260040161075990613a4c565b600254600160a81b900460ff1680156115455750600254600160a01b900460ff165b6115615760405162461bcd60e51b815260040161075990613845565b60008061156c6125cf565b91509150816001600160501b0316600b81905550611596600a54836001600160501b0316836126cc565b6115b86001600a546115a89190613b8e565b836001600160501b0316836127d9565b6115cf6001600a546115ca9190613b8e565b6128d6565b600a546115dd906001613b37565b600a8190556115eb90612a2a565b5050565b6000828152600d602090815260408083206001600160a01b0385168452909152808220815160608101909252805483929190829060ff16600181111561164557634e487b7160e01b600052602160045260246000fd5b600181111561166457634e487b7160e01b600052602160045260246000fd5b815260018281015460208084019190915260029384015460ff908116151560409485015260008a8152600e835284902084516101c08101865281548152938101549284019290925293810154928201929092526003820154606082015260048201546080820152600582015460a0820152600682015460c0820152600782015460e082015260088201546101008201526009820154610120820152600a820154610140820152600b820154610160820152600c820154610180820152600d909101549091161580156101a08301819052929350909161174557508160400151155b80156117615750600554816060015161175e9190613b37565b42115b80156117705750602082015115155b925050505b92915050565b60065481565b6002546001600160a01b031681565b611798610c02565b156117b55760405162461bcd60e51b815260040161075990613655565b6003546001600160a01b03163314806117d857506004546001600160a01b031633145b6117f45760405162461bcd60e51b81526004016107599061346d565b6117fc612add565b600a546040517f68b095021b1f40fe513109f513c66692f0b3219aee674a69f4efc57badb8201d90600090a2565b611832610c02565b61184e5760405162461bcd60e51b8152600401610759906130b2565b6003546001600160a01b031633146118785760405162461bcd60e51b815260040161075990613a72565b8082106118975760405162461bcd60e51b815260040161075990613348565b600582905560068190556040517fe60149e0431fec12df63dfab5fce2a9cefe9a4d3df5f41cb626f579ae1f2b91a906118d39084908490613a95565b60405180910390a15050565b600e60205260009081526040902080546001820154600283015460038401546004850154600586015460068701546007880154600889015460098a0154600a8b0154600b8c0154600c8d0154600d909d01549b9c9a9b999a98999798969795969495939492939192909160ff168e565b6000546001600160a01b031690565b6001600160a01b0383166000908152600f602052604081205460609182918490611989908790613b8e565b8111156119b7576001600160a01b0387166000908152600f60205260409020546119b4908790613b8e565b90505b60008167ffffffffffffffff8111156119e057634e487b7160e01b600052604160045260246000fd5b604051908082528060200260200182016040528015611a09578160200160208202803683370190505b50905060008267ffffffffffffffff811115611a3557634e487b7160e01b600052604160045260246000fd5b604051908082528060200260200182016040528015611a6e57816020015b611a5b612d30565b815260200190600190039081611a535790505b50905060005b83811015611bf4576001600160a01b038a166000908152600f60205260409020611a9e828b613b37565b81548110611abc57634e487b7160e01b600052603260045260246000fd5b9060005260206000200154838281518110611ae757634e487b7160e01b600052603260045260246000fd5b602002602001018181525050600d6000848381518110611b1757634e487b7160e01b600052603260045260246000fd5b602090810291909101810151825281810192909252604090810160009081206001600160a01b038e168252909252908190208151606081019092528054829060ff166001811115611b7857634e487b7160e01b600052602160045260246000fd5b6001811115611b9757634e487b7160e01b600052602160045260246000fd5b81526001820154602082015260029091015460ff1615156040909101528251839083908110611bd657634e487b7160e01b600052603260045260246000fd5b60200260200101819052508080611bec90613bd5565b915050611a74565b508181611c01858b613b37565b95509550955050505093509350939050565b6000828152600d602090815260408083206001600160a01b0385168452909152808220815160608101909252805483929190829060ff166001811115611c6957634e487b7160e01b600052602160045260246000fd5b6001811115611c8857634e487b7160e01b600052602160045260246000fd5b815260018281015460208084019190915260029384015460ff908116151560409485015260008a8152600e835284902084516101c081018652815481529381015492840192909252938101549282019290925260038201546060820152600482015460808201819052600583015460a08301819052600684015460c0840152600784015460e084015260088401546101008401526009840154610120840152600a840154610140840152600b840154610160840152600c840154610180840152600d9093015490931615156101a08201529293501415611d6d57600092505050611775565b806101a001518015611d825750602082015115155b8015611d9057508160400151155b8015611770575080608001518160a00151138015611dce5750600082516001811115611dcc57634e487b7160e01b600052602160045260246000fd5b145b80611770575080608001518160a001511280156117705750600182516001811115611e0957634e487b7160e01b600052602160045260246000fd5b1495945050505050565b611e1b610c02565b15611e385760405162461bcd60e51b815260040161075990613655565b60026001541415611e5b5760405162461bcd60e51b815260040161075990613998565b6002600155611e693361250a565b15611e865760405162461bcd60e51b81526004016107599061331a565b333214611ea55760405162461bcd60e51b8152600401610759906136af565b600a548114611ec65760405162461bcd60e51b8152600401610759906139cf565b611ecf81612510565b611eeb5760405162461bcd60e51b81526004016107599061375e565b600754341015611f0d5760405162461bcd60e51b815260040161075990613594565b6000818152600d6020908152604080832033845290915290206001015415611f475760405162461bcd60e51b815260040161075990613917565b6000818152600e602052604090206008810154349190611f68908390613b37565b6008820155600a810154611f7d908390613b37565b600a8201556000838152600d6020908152604080832033808552908352818420805460ff191660019081178255808201889055600f855283862080549182018155865293909420909201869055518591907f0d8c1fe3e67ab767116a81f122b83c2557a8c2564019cb7c4f83de1aeb1f1f0d90610bf0908790613076565b61200361257b565b6001600160a01b031661201461194f565b6001600160a01b03161461203a5760405162461bcd60e51b815260040161075990613729565b61204e6001600160a01b0383163383612b3e565b816001600160a01b03167f14f11966a996e0629572e51064726d2057a80fbd34efc066682c06a71dbb6e98826040516120879190613076565b60405180910390a25050565b6003546001600160a01b031633146120bd5760405162461bcd60e51b815260040161075990613a72565b6001600160a01b0381166120e35760405162461bcd60e51b81526004016107599061367f565b600480546001600160a01b0319166001600160a01b0383161790556040517fc47d127c07bdd56c5ccba00463ce3bd3c1bca71b4670eea6e5d0c02e4aa156e29061125a908390612f78565b60085481565b61213c610c02565b6121585760405162461bcd60e51b8152600401610759906130b2565b6003546001600160a01b031633146121825760405162461bcd60e51b815260040161075990613a72565b600c8190556040517f93ccaceac092ffb842c46b8718667a13a80e9058dcd0bd403d0b47215b30da079061125a908390613076565b6121bf610c02565b156121dc5760405162461bcd60e51b815260040161075990613655565b6004546001600160a01b031633146122065760405162461bcd60e51b815260040161075990613a4c565b600254600160a81b900460ff1661222f5760405162461bcd60e51b815260040161075990613191565b600254600160a01b900460ff16156122595760405162461bcd60e51b815260040161075990613499565b6000806122646125cf565b91509150816001600160501b0316600b8190555061228e600a54836001600160501b0316836126cc565b600a5461229c906001613b37565b600a8190556122aa9061248c565b50506002805460ff60a01b1916600160a01b179055565b600f60205281600052604060002081815481106122dd57600080fd5b90600052602060002001600091509150505481565b60055481565b600b5481565b6103e881565b61230c61257b565b6001600160a01b031661231d61194f565b6001600160a01b0316146123435760405162461bcd60e51b815260040161075990613729565b6001600160a01b0381166123695760405162461bcd60e51b8152600401610759906131e2565b6123728161257f565b50565b600254600160a81b900460ff1681565b60075481565b6003546001600160a01b031681565b6000826001600160a01b0316826040516123b390612f75565b60006040518083038185875af1925050503d80600081146123f0576040519150601f19603f3d011682016040523d82523d6000602084013e6123f5565b606091505b50509050806124165760405162461bcd60e51b8152600401610759906136e6565b505050565b612423610c02565b61243f5760405162461bcd60e51b8152600401610759906130b2565b6000805460ff60a01b191690557f5db9ee0a495bf2e6ff9c91a7834c1ba4fdd244a5e8aa4e537bd38aeae4b073aa61247561257b565b6040516124829190612f78565b60405180910390a1565b6000818152600e6020526040902042600182018190556006546124ae91613b37565b6002808301919091556006546124c391613b6f565b6124cd9042613b37565b600382015581815560006008820181905560405183917f939f42374aa9bf1d8d8cd56d8a9110cb040cd8dfeae44080c6fcf2645e51b45291a25050565b3b151590565b6000818152600e60205260408120600101541580159061254057506000828152600e602052604090206002015415155b801561255c57506000828152600e602052604090206001015442115b80156117755750506000908152600e6020526040902060020154421090565b3390565b600080546001600160a01b038381166001600160a01b0319831681178455604051919092169283917f8be0079c531659141344cd1fd0a4f28419497f9722a3daafe3b4186f6b6457e09190a35050565b6000806000600c54426125e29190613b37565b90506000806000600260009054906101000a90046001600160a01b03166001600160a01b031663feaf968c6040518163ffffffff1660e01b815260040160a06040518083038186803b15801561263757600080fd5b505afa15801561264b573d6000803e3d6000fd5b505050506040513d601f19601f8201168201806040525081019061266f9190612ee8565b5093505092509250838111156126975760405162461bcd60e51b8152600401610759906139fe565b600b54836001600160501b0316116126c15760405162461bcd60e51b815260040161075990613276565b509093509150509091565b6000838152600e60205260409020600101546126fa5760405162461bcd60e51b815260040161075990613146565b6000838152600e602052604090206002015442101561272b5760405162461bcd60e51b8152600401610759906133c9565b6005546000848152600e602052604090206002015461274a9190613b37565b4211156127695760405162461bcd60e51b81526004016107599061360d565b6000838152600e602052604090206006546127849042613b37565b60038201556004810182905560068101839055604051839085907f482e76a65b448a42deef26e99e58fb20c85e26f075defff8df6aa80459b39006906127cb908690613076565b60405180910390a350505050565b6000838152600e60205260409020600201546128075760405162461bcd60e51b81526004016107599061378a565b6000838152600e60205260409020600301544210156128385760405162461bcd60e51b815260040161075990613521565b6005546000848152600e60205260409020600301546128579190613b37565b4211156128765760405162461bcd60e51b8152600401610759906132d3565b6000838152600e6020526040908190206005810183905560078101849055600d8101805460ff191660011790559051839085907fb6ff1fe915db84788cbbbc017f0d2bef9485fad9fd0bd8ce9340fde0d8410dd8906127cb908690613076565b6000818152600e60205260409020600b015415801561290457506000818152600e60205260409020600c0154155b6129205760405162461bcd60e51b815260040161075990613568565b6000818152600e6020526040812060048101546005820154919291829182911315612984578360090154925061271060085485600801546129619190613b6f565b61296b9190613b4f565b915081846008015461297d9190613b8e565b90506129bd565b8360040154846005015412156129b05783600a0154925061271060085485600801546129619190613b6f565b5050506008810154600090815b600b8401839055600c8401819055600980548391906000906129e0908490613b37565b92505081905550847f6dfdfcb09c8804d0058826cd2539f1acfbe3cb887c9be03d928035bce0f1a58d848385604051612a1b93929190613aa3565b60405180910390a25050505050565b600254600160a81b900460ff16612a535760405162461bcd60e51b815260040161075990613191565b600e6000612a62600284613b8e565b81526020019081526020016000206003015460001415612a945760405162461bcd60e51b815260040161075990613228565b600e6000612aa3600284613b8e565b815260200190815260200160002060030154421015612ad45760405162461bcd60e51b815260040161075990613410565b6123728161248c565b612ae5610c02565b15612b025760405162461bcd60e51b815260040161075990613655565b6000805460ff60a01b1916600160a01b1790557f62e78cea01bee320cd4e420270b5ea74000d11b0c9f74754ebdbfc544b05a25861247561257b565b6124168363a9059cbb60e01b8484604051602401612b5d929190612f8c565b60408051601f198184030181529190526020810180516001600160e01b03166001600160e01b0319909316929092179091526000612be4826040518060400160405280602081526020017f5361666545524332303a206c6f772d6c6576656c2063616c6c206661696c6564815250856001600160a01b0316612c1e9092919063ffffffff16565b8051909150156124165780806020019051810190612c029190612e64565b6124165760405162461bcd60e51b81526004016107599061394e565b6060612c2d8484600085612c37565b90505b9392505050565b606082471015612c595760405162461bcd60e51b8152600401610759906134db565b612c628561250a565b612c7e5760405162461bcd60e51b8152600401610759906138b1565b600080866001600160a01b03168587604051612c9a9190612f59565b60006040518083038185875af1925050503d8060008114612cd7576040519150601f19603f3d011682016040523d82523d6000602084013e612cdc565b606091505b5091509150612cec828286612cf7565b979650505050505050565b60608315612d06575081612c30565b825115612d165782518084602001fd5b8160405162461bcd60e51b8152600401610759919061307f565b6040805160608101909152806000815260006020820181905260409091015290565b80356001600160a01b038116811461082757600080fd5b80516001600160501b038116811461082757600080fd5b600060208284031215612d91578081fd5b612c3082612d52565b60008060408385031215612dac578081fd5b612db583612d52565b946020939093013593505050565b600080600060608486031215612dd7578081fd5b612de084612d52565b95602085013595506040909401359392505050565b60008060208385031215612e07578182fd5b823567ffffffffffffffff80821115612e1e578384fd5b818501915085601f830112612e31578384fd5b813581811115612e3f578485fd5b8660208083028501011115612e52578485fd5b60209290920196919550909350505050565b600060208284031215612e75578081fd5b81518015158114612c30578182fd5b600060208284031215612e95578081fd5b5035919050565b60008060408385031215612eae578182fd5b82359150612ebe60208401612d52565b90509250929050565b60008060408385031215612ed9578182fd5b50508035926020909101359150565b600080600080600060a08688031215612eff578081fd5b612f0886612d69565b9450602086015193506040860151925060608601519150612f2b60808701612d69565b90509295509295909350565b60028110612f5557634e487b7160e01b600052602160045260246000fd5b9052565b60008251612f6b818460208701613ba5565b9190910192915050565b90565b6001600160a01b0391909116815260200190565b6001600160a01b03929092168252602082015260400190565b60608082528451828201819052600091906020906080850190828901855b82811015612fdf57815184529284019290840190600101612fc3565b50505084810382860152865180825287830191830190855b8181101561303057835161300c848251612f37565b80860151848701526040908101511515908401529284019291850191600101612ff7565b505080945050505050826040830152949350505050565b901515815260200190565b606081016130608286612f37565b8360208301528215156040830152949350505050565b90815260200190565b600060208252825180602084015261309e816040850160208701613ba5565b601f01601f19169190910160400192915050565b60208082526014908201527314185d5cd8589b194e881b9bdd081c185d5cd95960621b604082015260600190565b60208082526017908201527f4e6f7420656c696769626c6520666f7220726566756e64000000000000000000604082015260600190565b6020808252601590820152740a8e4cac2e6eae4f240cccaca40e8dede40d0d2ced605b1b604082015260600190565b6020808252602b908201527f43616e206f6e6c79206c6f636b20726f756e6420616674657220726f756e642060408201526a1a185cc81cdd185c9d195960aa1b606082015260800190565b60208082526031908201527f43616e206f6e6c792072756e2061667465722067656e657369735374617274526040820152701bdd5b99081a5cc81d1c9a59d9d95c9959607a1b606082015260800190565b60208082526026908201527f4f776e61626c653a206e6577206f776e657220697320746865207a65726f206160408201526564647265737360d01b606082015260800190565b6020808252602e908201527f43616e206f6e6c7920737461727420726f756e6420616674657220726f756e6460408201526d081b8b4c881a185cc8195b99195960921b606082015260800190565b6020808252603d908201527f4f7261636c652075706461746520726f756e644964206d757374206265206c6160408201527f72676572207468616e206f7261636c654c6174657374526f756e644964000000606082015260800190565b60208082526027908201527f43616e206f6e6c7920656e6420726f756e642077697468696e206275666665726040820152665365636f6e647360c81b606082015260800190565b60208082526014908201527310dbdb9d1c9858dd081b9bdd08185b1b1bddd95960621b604082015260600190565b60208082526031908201527f6275666665725365636f6e6473206d75737420626520696e666572696f7220746040820152706f20696e74657276616c5365636f6e647360781b606082015260800190565b6020808252601690820152754e6f7420656c696769626c6520666f7220636c61696d60501b604082015260600190565b60208082526027908201527f43616e206f6e6c79206c6f636b20726f756e64206166746572206c6f636b546960408201526606d657374616d760cc1b606082015260800190565b60208082526037908201527f43616e206f6e6c79207374617274206e657720726f756e64206166746572207260408201527f6f756e64206e2d3220636c6f736554696d657374616d70000000000000000000606082015260800190565b6020808252601290820152712737ba1037b832b930ba37b917b0b236b4b760711b604082015260600190565b60208082526022908201527f43616e206f6e6c792072756e2067656e657369734c6f636b526f756e64206f6e604082015261636560f01b606082015260800190565b60208082526026908201527f416464726573733a20696e73756666696369656e742062616c616e636520666f6040820152651c8818d85b1b60d21b606082015260800190565b60208082526027908201527f43616e206f6e6c7920656e6420726f756e6420616674657220636c6f7365546960408201526606d657374616d760cc1b606082015260800190565b60208082526012908201527114995dd85c991cc818d85b18dd5b185d195960721b604082015260600190565b6020808252602c908201527f42657420616d6f756e74206d7573742062652067726561746572207468616e2060408201526b1b5a5b90995d105b5bdd5b9d60a21b606082015260800190565b602080825260139082015272149bdd5b99081a185cc81b9bdd08195b991959606a1b604082015260600190565b60208082526028908201527f43616e206f6e6c79206c6f636b20726f756e642077697468696e206275666665604082015267725365636f6e647360c01b606082015260800190565b60208082526010908201526f14185d5cd8589b194e881c185d5cd95960821b604082015260600190565b60208082526016908201527543616e6e6f74206265207a65726f206164647265737360501b604082015260600190565b6020808252601a908201527f50726f787920636f6e7472616374206e6f7420616c6c6f776564000000000000604082015260600190565b60208082526023908201527f5472616e7366657248656c7065723a204f6e655f5452414e534645525f46414960408201526213115160ea1b606082015260800190565b6020808252818101527f4f776e61626c653a2063616c6c6572206973206e6f7420746865206f776e6572604082015260600190565b602080825260129082015271526f756e64206e6f74206265747461626c6560701b604082015260600190565b60208082526029908201527f43616e206f6e6c7920656e6420726f756e6420616674657220726f756e642068604082015268185cc81b1bd8dad95960ba1b606082015260800190565b60208082526023908201527f43616e206f6e6c792072756e2067656e657369735374617274526f756e64206f6040820152626e636560e81b606082015260800190565b60208082526015908201527404d757374206265207375706572696f7220746f203605c1b604082015260600190565b60208082526046908201527f43616e206f6e6c792072756e2061667465722067656e6573697353746172745260408201527f6f756e6420616e642067656e657369734c6f636b526f756e642069732074726960608201526519d9d95c995960d21b608082015260a00190565b6020808252601d908201527f416464726573733a2063616c6c20746f206e6f6e2d636f6e7472616374000000604082015260600190565b602080825260159082015274149bdd5b99081a185cc81b9bdd081cdd185c9d1959605a1b604082015260600190565b6020808252601b908201527f43616e206f6e6c7920626574206f6e63652070657220726f756e640000000000604082015260600190565b6020808252602a908201527f5361666545524332303a204552433230206f7065726174696f6e20646964206e6040820152691bdd081cdd58d8d9595960b21b606082015260800190565b6020808252601f908201527f5265656e7472616e637947756172643a207265656e7472616e742063616c6c00604082015260600190565b60208082526015908201527442657420697320746f6f206561726c792f6c61746560581b604082015260600190565b6020808252602e908201527f4f7261636c6520757064617465206578636565646564206d61782074696d657360408201526d74616d7020616c6c6f77616e636560901b606082015260800190565b6020808252600c908201526b2737ba1037b832b930ba37b960a11b604082015260600190565b6020808252600990820152682737ba1030b236b4b760b91b604082015260600190565b918252602082015260400190565b9283526020830191909152604082015260600190565b9d8e5260208e019c909c5260408d019a909a5260608c019890985260808b019690965260a08a019490945260c089019290925260e088015261010087015261012086015261014085015261016084015261018083015215156101a08201526101c00190565b6001600160501b03929092168252602082015260400190565b60008219821115613b4a57613b4a613bf0565b500190565b600082613b6a57634e487b7160e01b81526012600452602481fd5b500490565b6000816000190483118215151615613b8957613b89613bf0565b500290565b600082821015613ba057613ba0613bf0565b500390565b60005b83811015613bc0578181015183820152602001613ba8565b83811115613bcf576000848401525b50505050565b6000600019821415613be957613be9613bf0565b5060010190565b634e487b7160e01b600052601160045260246000fdfea26469706673582212208cdf84d51a04afc9f952857c3770c1534875e430725c5ddb5c71f2daced3dbc864736f6c63430008000033",
  "linkReferences": {},
  "deployedLinkReferences": {}
}